{
  "contractName": "CoinCrotToken",
  "abi": [
    {
      "constant": true,
      "inputs": [],
      "name": "totalSuply",
      "outputs": [
        {
          "name": "",
          "type": "uint256"
        }
      ],
      "payable": false,
      "stateMutability": "view",
      "type": "function"
    },
    {
      "inputs": [],
      "payable": false,
      "stateMutability": "nonpayable",
      "type": "constructor"
    }
  ],
  "bytecode": "0x6080604052348015600f57600080fd5b50620186a0600081905550607b806100286000396000f3fe6080604052348015600f57600080fd5b506004361060285760003560e01c8063a2a9679914602d575b600080fd5b60336049565b6040518082815260200191505060405180910390f35b6000548156fea165627a7a72305820e7d584d249df857375af81ea90a2d13c452e851786c5d5812a77a33f2fb1c2d80029",
  "source": "pragma solidity ^0.5.1;\n\n\ncontract CoinCrotToken{\n    uint256 public totalSuply;\n\n    constructor() public{\n        totalSuply = 100000;\n    }\n}",
  "sourcePath": "/home/yafiabiyyu/Documents/Project/DApps/mytoken/contracts/CoinCrotToken.sol",
  "compiler": {
    "name": "solc",
    "version": "0.5.8+commit.23d335f2.Emscripten.clang"
  },
  "schemaVersion": "3.0.15",
  "updatedAt": "2019-09-06T19:55:52.894Z",
  "devdoc": {
    "methods": {}
  },
  "userdoc": {
    "methods": {}
  }
}