{
  "contractName": "CoinCrotTokenSale",
  "abi": [
    {
      "constant": true,
      "inputs": [],
      "name": "tokenContract",
      "outputs": [
        {
          "name": "",
          "type": "address"
        }
      ],
      "payable": false,
      "stateMutability": "view",
      "type": "function"
    },
    {
      "constant": true,
      "inputs": [],
      "name": "tokenPrice",
      "outputs": [
        {
          "name": "",
          "type": "uint256"
        }
      ],
      "payable": false,
      "stateMutability": "view",
      "type": "function"
    },
    {
      "inputs": [
        {
          "name": "_tokenContract",
          "type": "address"
        },
        {
          "name": "_tokenPrice",
          "type": "uint256"
        }
      ],
      "payable": false,
      "stateMutability": "nonpayable",
      "type": "constructor"
    }
  ],
  "bytecode": "0x608060405234801561001057600080fd5b506040516040806101d68339810180604052604081101561003057600080fd5b810190808051906020019092919080519060200190929190505050336000806101000a81548173ffffffffffffffffffffffffffffffffffffffff021916908373ffffffffffffffffffffffffffffffffffffffff16021790555081600160006101000a81548173ffffffffffffffffffffffffffffffffffffffff021916908373ffffffffffffffffffffffffffffffffffffffff16021790555080600281905550505060f3806100e36000396000f3fe6080604052348015600f57600080fd5b506004361060325760003560e01c806355a373d61460375780637ff9b59614607f575b600080fd5b603d609b565b604051808273ffffffffffffffffffffffffffffffffffffffff1673ffffffffffffffffffffffffffffffffffffffff16815260200191505060405180910390f35b608560c1565b6040518082815260200191505060405180910390f35b600160009054906101000a900473ffffffffffffffffffffffffffffffffffffffff1681565b6002548156fea165627a7a723058209d80945b6ebbcc4fe5c8deea19b99f3acc53cf6a96ab25b7fc7ab3810a70d8af0029",
  "source": "pragma solidity ^0.5.1;\n\nimport \"./CoinCrotToken.sol\";\n\ncontract CoinCrotTokenSale{\n    address admin;\n    CoinCrotToken public tokenContract;\n    uint256 public tokenPrice;\n\n    constructor(CoinCrotToken _tokenContract, uint256 _tokenPrice)public{\n        admin = msg.sender;\n        tokenContract = _tokenContract;\n        tokenPrice = _tokenPrice;\n    }\n}",
  "sourcePath": "/home/yafiabiyyu/Documents/Project/DApps/mytoken/contracts/CoinCrotTokenSale.sol",
  "compiler": {
    "name": "solc",
    "version": "0.5.8+commit.23d335f2.Emscripten.clang"
  },
  "schemaVersion": "3.0.15",
  "updatedAt": "2019-09-08T04:05:14.064Z",
  "devdoc": {
    "methods": {}
  },
  "userdoc": {
    "methods": {}
  }
}