{
  "contractName": "CoinCrotTokenSale",
  "abi": [
    {
      "constant": true,
      "inputs": [],
      "name": "tokenSold",
      "outputs": [
        {
          "name": "",
          "type": "uint256"
        }
      ],
      "payable": false,
      "stateMutability": "view",
      "type": "function"
    },
    {
      "constant": true,
      "inputs": [],
      "name": "tokenContract",
      "outputs": [
        {
          "name": "",
          "type": "address"
        }
      ],
      "payable": false,
      "stateMutability": "view",
      "type": "function"
    },
    {
      "constant": true,
      "inputs": [],
      "name": "tokenPrice",
      "outputs": [
        {
          "name": "",
          "type": "uint256"
        }
      ],
      "payable": false,
      "stateMutability": "view",
      "type": "function"
    },
    {
      "inputs": [
        {
          "name": "_tokenContract",
          "type": "address"
        },
        {
          "name": "_tokenPrice",
          "type": "uint256"
        }
      ],
      "payable": false,
      "stateMutability": "nonpayable",
      "type": "constructor"
    },
    {
      "anonymous": false,
      "inputs": [
        {
          "indexed": false,
          "name": "_buyer",
          "type": "address"
        },
        {
          "indexed": false,
          "name": "_amount",
          "type": "uint256"
        }
      ],
      "name": "Sell",
      "type": "event"
    },
    {
      "constant": false,
      "inputs": [
        {
          "name": "_numberOfTokens",
          "type": "uint256"
        }
      ],
      "name": "buyTokens",
      "outputs": [],
      "payable": true,
      "stateMutability": "payable",
      "type": "function"
    }
  ],
  "bytecode": "0x608060405234801561001057600080fd5b506040516040806102df8339810180604052604081101561003057600080fd5b810190808051906020019092919080519060200190929190505050336000806101000a81548173ffffffffffffffffffffffffffffffffffffffff021916908373ffffffffffffffffffffffffffffffffffffffff16021790555081600160006101000a81548173ffffffffffffffffffffffffffffffffffffffff021916908373ffffffffffffffffffffffffffffffffffffffff1602179055508060028190555050506101fb806100e46000396000f3fe60806040526004361061003f5760003560e01c80633610724e14610044578063519ee19e1461007257806355a373d61461009d5780637ff9b596146100f4575b600080fd5b6100706004803603602081101561005a57600080fd5b810190808035906020019092919050505061011f565b005b34801561007e57600080fd5b5061008761019d565b6040518082815260200191505060405180910390f35b3480156100a957600080fd5b506100b26101a3565b604051808273ffffffffffffffffffffffffffffffffffffffff1673ffffffffffffffffffffffffffffffffffffffff16815260200191505060405180910390f35b34801561010057600080fd5b506101096101c9565b6040518082815260200191505060405180910390f35b806003600082825401925050819055507f5e5e995ce3133561afceaa51a9a154d5db228cd7525d34df5185582c18d3df093382604051808373ffffffffffffffffffffffffffffffffffffffff1673ffffffffffffffffffffffffffffffffffffffff1681526020018281526020019250505060405180910390a150565b60035481565b600160009054906101000a900473ffffffffffffffffffffffffffffffffffffffff1681565b6002548156fea165627a7a723058209c722b991d38d2ba10f7e8005806fbb3bdca23ad085e1ec0f1f80d0c0528f1a20029",
  "source": "pragma solidity ^0.5.1;\n\nimport \"./CoinCrotToken.sol\";\n\ncontract CoinCrotTokenSale{\n    address admin;\n    CoinCrotToken public tokenContract;\n    uint256 public tokenPrice;\n    uint256 public tokenSold;\n\n    event Sell(address _buyer, uint256 _amount);\n\n    constructor(CoinCrotToken _tokenContract, uint256 _tokenPrice)public{\n        admin = msg.sender;\n        tokenContract = _tokenContract;\n        tokenPrice = _tokenPrice;\n    }\n\n    //Mulitply\n    function multiply(uint x, uint y)internal pure returns(uint z) {\n        require(y == 0 || (z = x * y) / y == x);\n    }\n\n    //Buy Tokens\n    function buyTokens(uint256 _numberOfTokens) public payable{\n        \n        // Require that value is equal to tokens\n\n\n        // Require that the contract has enough tokens\n\n\n        // Require that a transfer is succesful\n        \n\n        // Keep track of tokenSold\n        tokenSold += _numberOfTokens;\n\n        // Trigger Sell Event\n        emit Sell(msg.sender, _numberOfTokens);\n    }\n\n}",
  "sourcePath": "/home/yafiabiyyu/Documents/Project/DApps/mytoken/contracts/CoinCrotTokenSale.sol",
  "compiler": {
    "name": "solc",
    "version": "0.5.8+commit.23d335f2.Emscripten.clang"
  },
  "schemaVersion": "3.0.15",
  "updatedAt": "2019-09-08T10:07:41.679Z",
  "devdoc": {
    "methods": {}
  },
  "userdoc": {
    "methods": {}
  }
}